{
  "_format": "hh-sol-artifact-1",
  "contractName": "Token",
  "sourceName": "contracts/Token.sol",
  "abi": [
    {
      "inputs": [
        {
          "internalType": "uint256",
          "name": "initialSupply",
          "type": "uint256"
        },
        {
          "internalType": "string",
          "name": "version_",
          "type": "string"
        }
      ],
      "stateMutability": "nonpayable",
      "type": "constructor"
    },
    {
      "inputs": [],
      "name": "ECDSAInvalidSignature",
      "type": "error"
    },
    {
      "inputs": [
        {
          "internalType": "uint256",
          "name": "length",
          "type": "uint256"
        }
      ],
      "name": "ECDSAInvalidSignatureLength",
      "type": "error"
    },
    {
      "inputs": [
        {
          "internalType": "bytes32",
          "name": "s",
          "type": "bytes32"
        }
      ],
      "name": "ECDSAInvalidSignatureS",
      "type": "error"
    },
    {
      "inputs": [
        {
          "internalType": "address",
          "name": "spender",
          "type": "address"
        },
        {
          "internalType": "uint256",
          "name": "allowance",
          "type": "uint256"
        },
        {
          "internalType": "uint256",
          "name": "needed",
          "type": "uint256"
        }
      ],
      "name": "ERC20InsufficientAllowance",
      "type": "error"
    },
    {
      "inputs": [
        {
          "internalType": "address",
          "name": "sender",
          "type": "address"
        },
        {
          "internalType": "uint256",
          "name": "balance",
          "type": "uint256"
        },
        {
          "internalType": "uint256",
          "name": "needed",
          "type": "uint256"
        }
      ],
      "name": "ERC20InsufficientBalance",
      "type": "error"
    },
    {
      "inputs": [
        {
          "internalType": "address",
          "name": "approver",
          "type": "address"
        }
      ],
      "name": "ERC20InvalidApprover",
      "type": "error"
    },
    {
      "inputs": [
        {
          "internalType": "address",
          "name": "receiver",
          "type": "address"
        }
      ],
      "name": "ERC20InvalidReceiver",
      "type": "error"
    },
    {
      "inputs": [
        {
          "internalType": "address",
          "name": "sender",
          "type": "address"
        }
      ],
      "name": "ERC20InvalidSender",
      "type": "error"
    },
    {
      "inputs": [
        {
          "internalType": "address",
          "name": "spender",
          "type": "address"
        }
      ],
      "name": "ERC20InvalidSpender",
      "type": "error"
    },
    {
      "inputs": [
        {
          "internalType": "uint256",
          "name": "deadline",
          "type": "uint256"
        }
      ],
      "name": "ERC2612ExpiredSignature",
      "type": "error"
    },
    {
      "inputs": [
        {
          "internalType": "address",
          "name": "signer",
          "type": "address"
        },
        {
          "internalType": "address",
          "name": "owner",
          "type": "address"
        }
      ],
      "name": "ERC2612InvalidSigner",
      "type": "error"
    },
    {
      "inputs": [
        {
          "internalType": "address",
          "name": "account",
          "type": "address"
        },
        {
          "internalType": "uint256",
          "name": "currentNonce",
          "type": "uint256"
        }
      ],
      "name": "InvalidAccountNonce",
      "type": "error"
    },
    {
      "inputs": [],
      "name": "InvalidShortString",
      "type": "error"
    },
    {
      "inputs": [
        {
          "internalType": "string",
          "name": "str",
          "type": "string"
        }
      ],
      "name": "StringTooLong",
      "type": "error"
    },
    {
      "anonymous": false,
      "inputs": [
        {
          "indexed": true,
          "internalType": "address",
          "name": "owner",
          "type": "address"
        },
        {
          "indexed": true,
          "internalType": "address",
          "name": "spender",
          "type": "address"
        },
        {
          "indexed": false,
          "internalType": "uint256",
          "name": "value",
          "type": "uint256"
        }
      ],
      "name": "Approval",
      "type": "event"
    },
    {
      "anonymous": false,
      "inputs": [],
      "name": "EIP712DomainChanged",
      "type": "event"
    },
    {
      "anonymous": false,
      "inputs": [
        {
          "indexed": true,
          "internalType": "address",
          "name": "from",
          "type": "address"
        },
        {
          "indexed": true,
          "internalType": "address",
          "name": "to",
          "type": "address"
        },
        {
          "indexed": false,
          "internalType": "uint256",
          "name": "value",
          "type": "uint256"
        }
      ],
      "name": "Transfer",
      "type": "event"
    },
    {
      "inputs": [],
      "name": "DOMAIN_SEPARATOR",
      "outputs": [
        {
          "internalType": "bytes32",
          "name": "",
          "type": "bytes32"
        }
      ],
      "stateMutability": "view",
      "type": "function"
    },
    {
      "inputs": [
        {
          "internalType": "address",
          "name": "owner",
          "type": "address"
        },
        {
          "internalType": "address",
          "name": "spender",
          "type": "address"
        }
      ],
      "name": "allowance",
      "outputs": [
        {
          "internalType": "uint256",
          "name": "",
          "type": "uint256"
        }
      ],
      "stateMutability": "view",
      "type": "function"
    },
    {
      "inputs": [
        {
          "internalType": "address",
          "name": "spender",
          "type": "address"
        },
        {
          "internalType": "uint256",
          "name": "value",
          "type": "uint256"
        }
      ],
      "name": "approve",
      "outputs": [
        {
          "internalType": "bool",
          "name": "",
          "type": "bool"
        }
      ],
      "stateMutability": "nonpayable",
      "type": "function"
    },
    {
      "inputs": [
        {
          "internalType": "address",
          "name": "account",
          "type": "address"
        }
      ],
      "name": "balanceOf",
      "outputs": [
        {
          "internalType": "uint256",
          "name": "",
          "type": "uint256"
        }
      ],
      "stateMutability": "view",
      "type": "function"
    },
    {
      "inputs": [],
      "name": "decimals",
      "outputs": [
        {
          "internalType": "uint8",
          "name": "",
          "type": "uint8"
        }
      ],
      "stateMutability": "view",
      "type": "function"
    },
    {
      "inputs": [],
      "name": "eip712Domain",
      "outputs": [
        {
          "internalType": "bytes1",
          "name": "fields",
          "type": "bytes1"
        },
        {
          "internalType": "string",
          "name": "name",
          "type": "string"
        },
        {
          "internalType": "string",
          "name": "version",
          "type": "string"
        },
        {
          "internalType": "uint256",
          "name": "chainId",
          "type": "uint256"
        },
        {
          "internalType": "address",
          "name": "verifyingContract",
          "type": "address"
        },
        {
          "internalType": "bytes32",
          "name": "salt",
          "type": "bytes32"
        },
        {
          "internalType": "uint256[]",
          "name": "extensions",
          "type": "uint256[]"
        }
      ],
      "stateMutability": "view",
      "type": "function"
    },
    {
      "inputs": [],
      "name": "name",
      "outputs": [
        {
          "internalType": "string",
          "name": "",
          "type": "string"
        }
      ],
      "stateMutability": "view",
      "type": "function"
    },
    {
      "inputs": [
        {
          "internalType": "address",
          "name": "owner",
          "type": "address"
        }
      ],
      "name": "nonces",
      "outputs": [
        {
          "internalType": "uint256",
          "name": "",
          "type": "uint256"
        }
      ],
      "stateMutability": "view",
      "type": "function"
    },
    {
      "inputs": [
        {
          "internalType": "address",
          "name": "owner",
          "type": "address"
        },
        {
          "internalType": "address",
          "name": "spender",
          "type": "address"
        },
        {
          "internalType": "uint256",
          "name": "value",
          "type": "uint256"
        },
        {
          "internalType": "uint256",
          "name": "deadline",
          "type": "uint256"
        },
        {
          "internalType": "uint8",
          "name": "v",
          "type": "uint8"
        },
        {
          "internalType": "bytes32",
          "name": "r",
          "type": "bytes32"
        },
        {
          "internalType": "bytes32",
          "name": "s",
          "type": "bytes32"
        }
      ],
      "name": "permit",
      "outputs": [],
      "stateMutability": "nonpayable",
      "type": "function"
    },
    {
      "inputs": [],
      "name": "symbol",
      "outputs": [
        {
          "internalType": "string",
          "name": "",
          "type": "string"
        }
      ],
      "stateMutability": "view",
      "type": "function"
    },
    {
      "inputs": [],
      "name": "totalSupply",
      "outputs": [
        {
          "internalType": "uint256",
          "name": "",
          "type": "uint256"
        }
      ],
      "stateMutability": "view",
      "type": "function"
    },
    {
      "inputs": [
        {
          "internalType": "address",
          "name": "to",
          "type": "address"
        },
        {
          "internalType": "uint256",
          "name": "value",
          "type": "uint256"
        }
      ],
      "name": "transfer",
      "outputs": [
        {
          "internalType": "bool",
          "name": "",
          "type": "bool"
        }
      ],
      "stateMutability": "nonpayable",
      "type": "function"
    },
    {
      "inputs": [
        {
          "internalType": "address",
          "name": "from",
          "type": "address"
        },
        {
          "internalType": "address",
          "name": "to",
          "type": "address"
        },
        {
          "internalType": "uint256",
          "name": "value",
          "type": "uint256"
        }
      ],
      "name": "transferFrom",
      "outputs": [
        {
          "internalType": "bool",
          "name": "",
          "type": "bool"
        }
      ],
      "stateMutability": "nonpayable",
      "type": "function"
    },
    {
      "inputs": [],
      "name": "version",
      "outputs": [
        {
          "internalType": "string",
          "name": "",
          "type": "string"
        }
      ],
      "stateMutability": "view",
      "type": "function"
    }
  ],
  "bytecode": "0x61016060405234801561001157600080fd5b50604051612c80380380612c80833981810160405281019061003391906107a2565b6040518060400160405280600581526020017f4d454c4948000000000000000000000000000000000000000000000000000000815250806040518060400160405280600181526020017f31000000000000000000000000000000000000000000000000000000000000008152506040518060400160405280600581526020017f4d454c49480000000000000000000000000000000000000000000000000000008152506040518060400160405280600581526020017f4d454c4948000000000000000000000000000000000000000000000000000000815250816003908161011b9190610a15565b50806004908161012b9190610a15565b50505061014260058361022460201b90919060201c565b610120818152505061015e60068261022460201b90919060201c565b6101408181525050818051906020012060e08181525050808051906020012061010081815250504660a0818152505061019b61027460201b60201c565b608081815250503073ffffffffffffffffffffffffffffffffffffffff1660c08173ffffffffffffffffffffffffffffffffffffffff168152505050505080600890816101e89190610a15565b5061021d336101fb6102cf60201b60201c565b600a6102079190610c56565b846102129190610ca1565b6102d860201b60201c565b5050610f43565b60006020835110156102465761023f8361036060201b60201c565b905061026e565b82610256836103c860201b60201c565b60000190816102659190610a15565b5060ff60001b90505b92915050565b60007f8b73c3c69bb8fe3d512ecc4cf759cc79239f7b179b0ffacaa9a75d522b39400f60e0516101005146306040516020016102b4959493929190610d4c565b60405160208183030381529060405280519060200120905090565b60006012905090565b600073ffffffffffffffffffffffffffffffffffffffff168273ffffffffffffffffffffffffffffffffffffffff160361034a5760006040517fec442f050000000000000000000000000000000000000000000000000000000081526004016103419190610d9f565b60405180910390fd5b61035c600083836103d260201b60201c565b5050565b600080829050601f815111156103ad57826040517f305a27a90000000000000000000000000000000000000000000000000000000081526004016103a49190610e04565b60405180910390fd5b8051816103b990610e56565b60001c1760001b915050919050565b6000819050919050565b600073ffffffffffffffffffffffffffffffffffffffff168373ffffffffffffffffffffffffffffffffffffffff16036104245780600260008282546104189190610ebd565b925050819055506104f7565b60008060008573ffffffffffffffffffffffffffffffffffffffff1673ffffffffffffffffffffffffffffffffffffffff168152602001908152602001600020549050818110156104b0578381836040517fe450d38c0000000000000000000000000000000000000000000000000000000081526004016104a793929190610ef1565b60405180910390fd5b8181036000808673ffffffffffffffffffffffffffffffffffffffff1673ffffffffffffffffffffffffffffffffffffffff16815260200190815260200160002081905550505b600073ffffffffffffffffffffffffffffffffffffffff168273ffffffffffffffffffffffffffffffffffffffff1603610540578060026000828254039250508190555061058d565b806000808473ffffffffffffffffffffffffffffffffffffffff1673ffffffffffffffffffffffffffffffffffffffff168152602001908152602001600020600082825401925050819055505b8173ffffffffffffffffffffffffffffffffffffffff168373ffffffffffffffffffffffffffffffffffffffff167fddf252ad1be2c89b69c2b068fc378daa952ba7f163c4a11628f55a4df523b3ef836040516105ea9190610f28565b60405180910390a3505050565b6000604051905090565b600080fd5b600080fd5b6000819050919050565b61061e8161060b565b811461062957600080fd5b50565b60008151905061063b81610615565b92915050565b600080fd5b600080fd5b6000601f19601f8301169050919050565b7f4e487b7100000000000000000000000000000000000000000000000000000000600052604160045260246000fd5b6106948261064b565b810181811067ffffffffffffffff821117156106b3576106b261065c565b5b80604052505050565b60006106c66105f7565b90506106d2828261068b565b919050565b600067ffffffffffffffff8211156106f2576106f161065c565b5b6106fb8261064b565b9050602081019050919050565b60005b8381101561072657808201518184015260208101905061070b565b60008484015250505050565b6000610745610740846106d7565b6106bc565b90508281526020810184848401111561076157610760610646565b5b61076c848285610708565b509392505050565b600082601f83011261078957610788610641565b5b8151610799848260208601610732565b91505092915050565b600080604083850312156107b9576107b8610601565b5b60006107c78582860161062c565b925050602083015167ffffffffffffffff8111156107e8576107e7610606565b5b6107f485828601610774565b9150509250929050565b600081519050919050565b7f4e487b7100000000000000000000000000000000000000000000000000000000600052602260045260246000fd5b6000600282049050600182168061085057607f821691505b60208210810361086357610862610809565b5b50919050565b60008190508160005260206000209050919050565b60006020601f8301049050919050565b600082821b905092915050565b6000600883026108cb7fffffffffffffffffffffffffffffffffffffffffffffffffffffffffffffffff8261088e565b6108d5868361088e565b95508019841693508086168417925050509392505050565b6000819050919050565b600061091261090d6109088461060b565b6108ed565b61060b565b9050919050565b6000819050919050565b61092c836108f7565b61094061093882610919565b84845461089b565b825550505050565b600090565b610955610948565b610960818484610923565b505050565b5b818110156109845761097960008261094d565b600181019050610966565b5050565b601f8211156109c95761099a81610869565b6109a38461087e565b810160208510156109b2578190505b6109c66109be8561087e565b830182610965565b50505b505050565b600082821c905092915050565b60006109ec600019846008026109ce565b1980831691505092915050565b6000610a0583836109db565b9150826002028217905092915050565b610a1e826107fe565b67ffffffffffffffff811115610a3757610a3661065c565b5b610a418254610838565b610a4c828285610988565b600060209050601f831160018114610a7f5760008415610a6d578287015190505b610a7785826109f9565b865550610adf565b601f198416610a8d86610869565b60005b82811015610ab557848901518255600182019150602085019450602081019050610a90565b86831015610ad25784890151610ace601f8916826109db565b8355505b6001600288020188555050505b505050505050565b7f4e487b7100000000000000000000000000000000000000000000000000000000600052601160045260246000fd5b60008160011c9050919050565b6000808291508390505b6001851115610b6d57808604811115610b4957610b48610ae7565b5b6001851615610b585780820291505b8081029050610b6685610b16565b9450610b2d565b94509492505050565b600082610b865760019050610c42565b81610b945760009050610c42565b8160018114610baa5760028114610bb457610be3565b6001915050610c42565b60ff841115610bc657610bc5610ae7565b5b8360020a915084821115610bdd57610bdc610ae7565b5b50610c42565b5060208310610133831016604e8410600b8410161715610c185782820a905083811115610c1357610c12610ae7565b5b610c42565b610c258484846001610b23565b92509050818404811115610c3c57610c3b610ae7565b5b81810290505b9392505050565b600060ff82169050919050565b6000610c618261060b565b9150610c6c83610c49565b9250610c997fffffffffffffffffffffffffffffffffffffffffffffffffffffffffffffffff8484610b76565b905092915050565b6000610cac8261060b565b9150610cb78361060b565b9250828202610cc58161060b565b91508282048414831517610cdc57610cdb610ae7565b5b5092915050565b6000819050919050565b610cf681610ce3565b82525050565b610d058161060b565b82525050565b600073ffffffffffffffffffffffffffffffffffffffff82169050919050565b6000610d3682610d0b565b9050919050565b610d4681610d2b565b82525050565b600060a082019050610d616000830188610ced565b610d6e6020830187610ced565b610d7b6040830186610ced565b610d886060830185610cfc565b610d956080830184610d3d565b9695505050505050565b6000602082019050610db46000830184610d3d565b92915050565b600082825260208201905092915050565b6000610dd6826107fe565b610de08185610dba565b9350610df0818560208601610708565b610df98161064b565b840191505092915050565b60006020820190508181036000830152610e1e8184610dcb565b905092915050565b600081519050919050565b6000819050602082019050919050565b6000610e4d8251610ce3565b80915050919050565b6000610e6182610e26565b82610e6b84610e31565b9050610e7681610e41565b92506020821015610eb657610eb17fffffffffffffffffffffffffffffffffffffffffffffffffffffffffffffffff8360200360080261088e565b831692505b5050919050565b6000610ec88261060b565b9150610ed38361060b565b9250828201905080821115610eeb57610eea610ae7565b5b92915050565b6000606082019050610f066000830186610d3d565b610f136020830185610cfc565b610f206040830184610cfc565b949350505050565b6000602082019050610f3d6000830184610cfc565b92915050565b60805160a05160c05160e051610100516101205161014051611ce3610f9d6000396000610b0a01526000610acf0152600061101f01526000610ffe015260006109ca01526000610a2001526000610a490152611ce36000f3fe608060405234801561001057600080fd5b50600436106100ea5760003560e01c806370a082311161008c57806395d89b411161006657806395d89b4114610269578063a9059cbb14610287578063d505accf146102b7578063dd62ed3e146102d3576100ea565b806370a08231146101e55780637ecebe001461021557806384b0196e14610245576100ea565b806323b872dd116100c857806323b872dd1461015b578063313ce5671461018b5780633644e515146101a957806354fd4d50146101c7576100ea565b806306fdde03146100ef578063095ea7b31461010d57806318160ddd1461013d575b600080fd5b6100f7610303565b604051610104919061150c565b60405180910390f35b610127600480360381019061012291906115c7565b610395565b6040516101349190611622565b60405180910390f35b6101456103b8565b604051610152919061164c565b60405180910390f35b61017560048036038101906101709190611667565b6103c2565b6040516101829190611622565b60405180910390f35b6101936103f1565b6040516101a091906116d6565b60405180910390f35b6101b16103fa565b6040516101be919061170a565b60405180910390f35b6101cf610409565b6040516101dc919061150c565b60405180910390f35b6101ff60048036038101906101fa9190611725565b61049b565b60405161020c919061164c565b60405180910390f35b61022f600480360381019061022a9190611725565b6104e3565b60405161023c919061164c565b60405180910390f35b61024d6104f5565b604051610260979695949392919061185a565b60405180910390f35b61027161059f565b60405161027e919061150c565b60405180910390f35b6102a1600480360381019061029c91906115c7565b610631565b6040516102ae9190611622565b60405180910390f35b6102d160048036038101906102cc9190611936565b610654565b005b6102ed60048036038101906102e891906119d8565b61079c565b6040516102fa919061164c565b60405180910390f35b60606003805461031290611a47565b80601f016020809104026020016040519081016040528092919081815260200182805461033e90611a47565b801561038b5780601f106103605761010080835404028352916020019161038b565b820191906000526020600020905b81548152906001019060200180831161036e57829003601f168201915b5050505050905090565b6000806103a0610823565b90506103ad81858561082b565b600191505092915050565b6000600254905090565b6000806103cd610823565b90506103da85828561083d565b6103e58585856108d2565b60019150509392505050565b60006012905090565b60006104046109c6565b905090565b60606008805461041890611a47565b80601f016020809104026020016040519081016040528092919081815260200182805461044490611a47565b80156104915780601f1061046657610100808354040283529160200191610491565b820191906000526020600020905b81548152906001019060200180831161047457829003601f168201915b5050505050905090565b60008060008373ffffffffffffffffffffffffffffffffffffffff1673ffffffffffffffffffffffffffffffffffffffff168152602001908152602001600020549050919050565b60006104ee82610a7d565b9050919050565b600060608060008060006060610509610ac6565b610511610b01565b46306000801b600067ffffffffffffffff81111561053257610531611a78565b5b6040519080825280602002602001820160405280156105605781602001602082028036833780820191505090505b507f0f00000000000000000000000000000000000000000000000000000000000000959493929190965096509650965096509650965090919293949596565b6060600480546105ae90611a47565b80601f01602080910402602001604051908101604052809291908181526020018280546105da90611a47565b80156106275780601f106105fc57610100808354040283529160200191610627565b820191906000526020600020905b81548152906001019060200180831161060a57829003601f168201915b5050505050905090565b60008061063c610823565b90506106498185856108d2565b600191505092915050565b8342111561069957836040517f62791302000000000000000000000000000000000000000000000000000000008152600401610690919061164c565b60405180910390fd5b60007f6e71edae12b1b97f4d1f60370fef10105fa2faae0126114a169c64845d6126c98888886106c88c610b3c565b896040516020016106de96959493929190611aa7565b604051602081830303815290604052805190602001209050600061070182610b93565b9050600061071182878787610bad565b90508973ffffffffffffffffffffffffffffffffffffffff168173ffffffffffffffffffffffffffffffffffffffff161461078557808a6040517f4b800e4600000000000000000000000000000000000000000000000000000000815260040161077c929190611b08565b60405180910390fd5b6107908a8a8a61082b565b50505050505050505050565b6000600160008473ffffffffffffffffffffffffffffffffffffffff1673ffffffffffffffffffffffffffffffffffffffff16815260200190815260200160002060008373ffffffffffffffffffffffffffffffffffffffff1673ffffffffffffffffffffffffffffffffffffffff16815260200190815260200160002054905092915050565b600033905090565b6108388383836001610bdd565b505050565b6000610849848461079c565b90507fffffffffffffffffffffffffffffffffffffffffffffffffffffffffffffffff8110156108cc57818110156108bc578281836040517ffb8f41b20000000000000000000000000000000000000000000000000000000081526004016108b393929190611b31565b60405180910390fd5b6108cb84848484036000610bdd565b5b50505050565b600073ffffffffffffffffffffffffffffffffffffffff168373ffffffffffffffffffffffffffffffffffffffff16036109445760006040517f96c6fd1e00000000000000000000000000000000000000000000000000000000815260040161093b9190611b68565b60405180910390fd5b600073ffffffffffffffffffffffffffffffffffffffff168273ffffffffffffffffffffffffffffffffffffffff16036109b65760006040517fec442f050000000000000000000000000000000000000000000000000000000081526004016109ad9190611b68565b60405180910390fd5b6109c1838383610db4565b505050565b60007f000000000000000000000000000000000000000000000000000000000000000073ffffffffffffffffffffffffffffffffffffffff163073ffffffffffffffffffffffffffffffffffffffff16148015610a4257507f000000000000000000000000000000000000000000000000000000000000000046145b15610a6f577f00000000000000000000000000000000000000000000000000000000000000009050610a7a565b610a77610fd9565b90505b90565b6000600760008373ffffffffffffffffffffffffffffffffffffffff1673ffffffffffffffffffffffffffffffffffffffff168152602001908152602001600020549050919050565b6060610afc60057f000000000000000000000000000000000000000000000000000000000000000061106f90919063ffffffff16565b905090565b6060610b3760067f000000000000000000000000000000000000000000000000000000000000000061106f90919063ffffffff16565b905090565b6000600760008373ffffffffffffffffffffffffffffffffffffffff1673ffffffffffffffffffffffffffffffffffffffff1681526020019081526020016000206000815480929190600101919050559050919050565b6000610ba6610ba06109c6565b8361111f565b9050919050565b600080600080610bbf88888888611160565b925092509250610bcf8282611254565b829350505050949350505050565b600073ffffffffffffffffffffffffffffffffffffffff168473ffffffffffffffffffffffffffffffffffffffff1603610c4f5760006040517fe602df05000000000000000000000000000000000000000000000000000000008152600401610c469190611b68565b60405180910390fd5b600073ffffffffffffffffffffffffffffffffffffffff168373ffffffffffffffffffffffffffffffffffffffff1603610cc15760006040517f94280d62000000000000000000000000000000000000000000000000000000008152600401610cb89190611b68565b60405180910390fd5b81600160008673ffffffffffffffffffffffffffffffffffffffff1673ffffffffffffffffffffffffffffffffffffffff16815260200190815260200160002060008573ffffffffffffffffffffffffffffffffffffffff1673ffffffffffffffffffffffffffffffffffffffff168152602001908152602001600020819055508015610dae578273ffffffffffffffffffffffffffffffffffffffff168473ffffffffffffffffffffffffffffffffffffffff167f8c5be1e5ebec7d5bd14f71427d1e84f3dd0314c0f7b2291e5b200ac8c7c3b92584604051610da5919061164c565b60405180910390a35b50505050565b600073ffffffffffffffffffffffffffffffffffffffff168373ffffffffffffffffffffffffffffffffffffffff1603610e06578060026000828254610dfa9190611bb2565b92505081905550610ed9565b60008060008573ffffffffffffffffffffffffffffffffffffffff1673ffffffffffffffffffffffffffffffffffffffff16815260200190815260200160002054905081811015610e92578381836040517fe450d38c000000000000000000000000000000000000000000000000000000008152600401610e8993929190611b31565b60405180910390fd5b8181036000808673ffffffffffffffffffffffffffffffffffffffff1673ffffffffffffffffffffffffffffffffffffffff16815260200190815260200160002081905550505b600073ffffffffffffffffffffffffffffffffffffffff168273ffffffffffffffffffffffffffffffffffffffff1603610f225780600260008282540392505081905550610f6f565b806000808473ffffffffffffffffffffffffffffffffffffffff1673ffffffffffffffffffffffffffffffffffffffff168152602001908152602001600020600082825401925050819055505b8173ffffffffffffffffffffffffffffffffffffffff168373ffffffffffffffffffffffffffffffffffffffff167fddf252ad1be2c89b69c2b068fc378daa952ba7f163c4a11628f55a4df523b3ef83604051610fcc919061164c565b60405180910390a3505050565b60007f8b73c3c69bb8fe3d512ecc4cf759cc79239f7b179b0ffacaa9a75d522b39400f7f00000000000000000000000000000000000000000000000000000000000000007f00000000000000000000000000000000000000000000000000000000000000004630604051602001611054959493929190611be6565b60405160208183030381529060405280519060200120905090565b606060ff60001b831461108c57611085836113b8565b9050611119565b81805461109890611a47565b80601f01602080910402602001604051908101604052809291908181526020018280546110c490611a47565b80156111115780601f106110e657610100808354040283529160200191611111565b820191906000526020600020905b8154815290600101906020018083116110f457829003601f168201915b505050505090505b92915050565b60006040517f190100000000000000000000000000000000000000000000000000000000000081528360028201528260228201526042812091505092915050565b60008060007f7fffffffffffffffffffffffffffffff5d576e7357a4501ddfe92f46681b20a08460001c11156111a057600060038592509250925061124a565b6000600188888888604051600081526020016040526040516111c59493929190611c39565b6020604051602081039080840390855afa1580156111e7573d6000803e3d6000fd5b505050602060405103519050600073ffffffffffffffffffffffffffffffffffffffff168173ffffffffffffffffffffffffffffffffffffffff160361123b57600060016000801b9350935093505061124a565b8060008060001b935093509350505b9450945094915050565b6000600381111561126857611267611c7e565b5b82600381111561127b5761127a611c7e565b5b03156113b4576001600381111561129557611294611c7e565b5b8260038111156112a8576112a7611c7e565b5b036112df576040517ff645eedf00000000000000000000000000000000000000000000000000000000815260040160405180910390fd5b600260038111156112f3576112f2611c7e565b5b82600381111561130657611305611c7e565b5b0361134b578060001c6040517ffce698f7000000000000000000000000000000000000000000000000000000008152600401611342919061164c565b60405180910390fd5b60038081111561135e5761135d611c7e565b5b82600381111561137157611370611c7e565b5b036113b357806040517fd78bce0c0000000000000000000000000000000000000000000000000000000081526004016113aa919061170a565b60405180910390fd5b5b5050565b606060006113c58361142c565b90506000602067ffffffffffffffff8111156113e4576113e3611a78565b5b6040519080825280601f01601f1916602001820160405280156114165781602001600182028036833780820191505090505b5090508181528360208201528092505050919050565b60008060ff8360001c169050601f811115611473576040517fb3512b0c00000000000000000000000000000000000000000000000000000000815260040160405180910390fd5b80915050919050565b600081519050919050565b600082825260208201905092915050565b60005b838110156114b657808201518184015260208101905061149b565b60008484015250505050565b6000601f19601f8301169050919050565b60006114de8261147c565b6114e88185611487565b93506114f8818560208601611498565b611501816114c2565b840191505092915050565b6000602082019050818103600083015261152681846114d3565b905092915050565b600080fd5b600073ffffffffffffffffffffffffffffffffffffffff82169050919050565b600061155e82611533565b9050919050565b61156e81611553565b811461157957600080fd5b50565b60008135905061158b81611565565b92915050565b6000819050919050565b6115a481611591565b81146115af57600080fd5b50565b6000813590506115c18161159b565b92915050565b600080604083850312156115de576115dd61152e565b5b60006115ec8582860161157c565b92505060206115fd858286016115b2565b9150509250929050565b60008115159050919050565b61161c81611607565b82525050565b60006020820190506116376000830184611613565b92915050565b61164681611591565b82525050565b6000602082019050611661600083018461163d565b92915050565b6000806000606084860312156116805761167f61152e565b5b600061168e8682870161157c565b935050602061169f8682870161157c565b92505060406116b0868287016115b2565b9150509250925092565b600060ff82169050919050565b6116d0816116ba565b82525050565b60006020820190506116eb60008301846116c7565b92915050565b6000819050919050565b611704816116f1565b82525050565b600060208201905061171f60008301846116fb565b92915050565b60006020828403121561173b5761173a61152e565b5b60006117498482850161157c565b91505092915050565b60007fff0000000000000000000000000000000000000000000000000000000000000082169050919050565b61178781611752565b82525050565b61179681611553565b82525050565b600081519050919050565b600082825260208201905092915050565b6000819050602082019050919050565b6117d181611591565b82525050565b60006117e383836117c8565b60208301905092915050565b6000602082019050919050565b60006118078261179c565b61181181856117a7565b935061181c836117b8565b8060005b8381101561184d57815161183488826117d7565b975061183f836117ef565b925050600181019050611820565b5085935050505092915050565b600060e08201905061186f600083018a61177e565b818103602083015261188181896114d3565b9050818103604083015261189581886114d3565b90506118a4606083018761163d565b6118b1608083018661178d565b6118be60a08301856116fb565b81810360c08301526118d081846117fc565b905098975050505050505050565b6118e7816116ba565b81146118f257600080fd5b50565b600081359050611904816118de565b92915050565b611913816116f1565b811461191e57600080fd5b50565b6000813590506119308161190a565b92915050565b600080600080600080600060e0888a0312156119555761195461152e565b5b60006119638a828b0161157c565b97505060206119748a828b0161157c565b96505060406119858a828b016115b2565b95505060606119968a828b016115b2565b94505060806119a78a828b016118f5565b93505060a06119b88a828b01611921565b92505060c06119c98a828b01611921565b91505092959891949750929550565b600080604083850312156119ef576119ee61152e565b5b60006119fd8582860161157c565b9250506020611a0e8582860161157c565b9150509250929050565b7f4e487b7100000000000000000000000000000000000000000000000000000000600052602260045260246000fd5b60006002820490506001821680611a5f57607f821691505b602082108103611a7257611a71611a18565b5b50919050565b7f4e487b7100000000000000000000000000000000000000000000000000000000600052604160045260246000fd5b600060c082019050611abc60008301896116fb565b611ac9602083018861178d565b611ad6604083018761178d565b611ae3606083018661163d565b611af0608083018561163d565b611afd60a083018461163d565b979650505050505050565b6000604082019050611b1d600083018561178d565b611b2a602083018461178d565b9392505050565b6000606082019050611b46600083018661178d565b611b53602083018561163d565b611b60604083018461163d565b949350505050565b6000602082019050611b7d600083018461178d565b92915050565b7f4e487b7100000000000000000000000000000000000000000000000000000000600052601160045260246000fd5b6000611bbd82611591565b9150611bc883611591565b9250828201905080821115611be057611bdf611b83565b5b92915050565b600060a082019050611bfb60008301886116fb565b611c0860208301876116fb565b611c1560408301866116fb565b611c22606083018561163d565b611c2f608083018461178d565b9695505050505050565b6000608082019050611c4e60008301876116fb565b611c5b60208301866116c7565b611c6860408301856116fb565b611c7560608301846116fb565b95945050505050565b7f4e487b7100000000000000000000000000000000000000000000000000000000600052602160045260246000fdfea2646970667358221220da6682909feb0da92fff91684e74542f04c162abe0e5e34d0dfcf920b972e0ee64736f6c634300081c0033",
  "linkReferences": {},
  "deployedLinkReferences": {}
}